:020000041000EA
:1000000000B5324B212058609868022188439860DF
:10001000D860186158612E4B002199600221596106
:100020000121F02299502B49196001219960352056
:1000300000F044F80222904214D00621196600F024
:1000400034F8196E01211966002018661A6600F04E
:100050002CF8196E196E196E052000F02FF8012189
:100060000842F9D1002199601B49196000215960AB
:100070001A491B48016001219960EB211966A021F2
:10008000196600F012F800219960164914480160C1
:100090000121996001BC002800D000471248134993
:1000A000086003C880F30888084703B5996A0420EC
:1000B0000142FBD001200142F8D103BD02B5186610
:1000C0001866FFF7F2FF186E186E02BD00000240BE
:1000D000000000180000070000035F00212200005C
:1000E000F4000018222000A00001001008ED00E03C
:1000F00000000000000000000000000074B24E7A12
:1001000000200420F7010010C3010010C5010010F9
:10011000C1010010C1010010C1010010C101001097
:10012000C1010010C1010010C1010010C701001081
:10013000C1010010C1010010C9010010CB01001065
:10014000CD010010CD010010CD010010CD01001037
:10015000CD010010CD010010CD010010CD01001027
:10016000CD010010CD010010CD010010CD01001017
:10017000CD010010CD010010CD010010CD01001007
:10018000CD010010CD010010CD010010CD010010F7
:10019000CD010010CD010010CD010010CD010010E7
:1001A000CD010010CD010010CD010010CD010010D7
:1001B000CD010010CD010010CD010010CD010010C7
:1001C00000BE00BE00BE00BE00BE00BEEFF3058054
:1001D000103800BEF2EB88714C8500107C85001051
:1001E0003802001090A31AE71E481F49086006C88D
:1001F00081F3088810471D480068002801D019487D
:10020000F3E70DA40ECC002902D000F012F8F9E7B4
:100210001749184A002000E001C19142FCD116495B
:100220008847164988471649884700BEFDE701C937
:1002300001C29A42FBD370477C850010C0000020A9
:10024000A80C00206491001000000420000004208D
:100250006491001000100420001004200000000031
:10026000704700000000000008ED00E0000000D032
:10027000A80C0020B41B00200D3C0010210300102E
:10028000C93B0010F8B5C0460448054B10B5834281
:1002900003D0044B002B00D0984710BDA80C0020C1
:1002A000A80C00200000000006480749091A8B101E
:1002B000C90FC91810B5491003D0044B002B00D04A
:1002C000984710BDA80C0020A80C002000000000DA
:1002D00010B5074C2378002B09D1FFF7D5FF054B4C
:1002E000002B02D0044800E000BF0123237010BDA2
:1002F000300E002000000000DC6F0010054B10B530
:10030000002B03D00449054800E000BFFFF7CCFFF5
:1003100010BDC04600000000340E0020DC6F00104D
:1003200070B503F091FD192000F038F8D0231B06BA
:10033000802292045A62D0252D068026B6046E6172
:10034000074803F088FDFA24A400200000F0D4FF41
:10035000AE61044803F07FFD200000F0CDFFEAE726
:10036000E06F0010E46F001010B58300084A9A187F
:10037000126840245440C0222240064CA4466344E4
:100380001A60C000044B9C466044416010BDC046EA
:1003900004C0014004D001400040014010B50123D9
:1003A0008340D0221206936293610521FFF7DCFFA0
:1003B00010BD000010B58023DB0518680205120D82
:1003C000030B1B041B0C09498A4203D1022B07D1E2
:1003D000000F10BD064B074A2221074803F0F8FB27
:1003E000064B044A2321044803F0F2FB27090000CE
:1003F000E86F0010747000100C7000106070001036
:100400000FB400B583B0084803F025FD049B002B12
:1004100007D005A90191180003F02CFD034803F053
:100420001AFD012003F0CEFB8870001098700010B8
:10043000EFF3108072B6034B1B68002BFBD0BFF3A9
:100440005F8F70472C0100D0BFF35F8F024B0022FB
:100450001A6080F3108870472C0100D0F8B50600B0
:100460000C001500FFF7E4FFE308F718F15C072222
:100470002240012393400B4205D1DBB20B433B707A
:10048000FFF7E2FFF8BD21002800FFF7B9FFF0B544
:1004900083B00600019114001F00FFF7C9FF00E0C0
:1004A0000134BC420CD8E308F518F35C0721214065
:1004B00001228A401A42F3D1D2B21A432A7001E0D3
:1004C00001246442FFF7C0FF002C02DB200003B0D0
:1004D000F0BD019B002BF9D00898FFF791FF0000B9
:1004E000054A1078431CDBB21370172B02D9130096
:1004F00010221A707047C046C80B002000B583B0A8
:100500000100044B00931F2318220348FFF7BFFF8D
:1005100003B000BD9C700010F4140020002307E01D
:10052000054A9A189200BFF35F8F002111600133D2
:100530001F2BF5D97047C04640000034074B9B681D
:10054000103080001950BFF35F8FBFF35F8F044BF3
:100550000021196082F310887047C04600ED00E06A
:10056000240100D00048704700E400E010B5FFF718
:10057000F9FF002302E0034A04C00133072BFAD934
:1005800010BDC0468080808010B5091A081F0B4B33
:100590009C4661440A4A914208D8C30706D44010D9
:1005A0004005400D074B184380B210BD0821064B93
:1005B000064AFF31064803F00BFBC046FC0700006B
:1005C000FE0F000000E0FFFFB87000104473001041
:1005D000E870001010B5091A04394C08090B08D14D
:1005E0004905490D064A11430180064B23434380C8
:1005F00010BD1021044B054AFF31054803F0E8FA0D
:1006000000F0FFFF00F8FFFF3C71001020730010A6
:10061000E870001001238340034A10681840431E0D
:100620009841C0B27047C04600E100E0002A05D002
:10063000044BC0225200995019607047014A802330
:10064000D150FAE700E100E010B50A001F23034093
:10065000012199404009FFF7E9FF10BD01238340C4
:10066000014A13607047C04600E200E0024B9B68FD
:1006700010308000C058704700ED00E010B5FFF763
:10068000F5FF044BC31A00202F229A424041C0B20A
:1006900010BDC046CC0B002070B504000D00EFF378
:1006A000108672B60C4B1B68002BFBD0BFF35F8F1C
:1006B0002000FFF7DBFF094B984201D0A84205D18B
:1006C000320029002000FFF739FF70BD044B054AB6
:1006D000E721054803F07CFA240100D0CD01001089
:1006E0004C71001078730010E8700010F0B5DE4611
:1006F00057464E464546E0B589B081460191150002
:10070000EFF3108B72B6754B1B68002BFBD0BFF359
:100710005F8F734B0027DF57002F3FDB7C00E4190E
:10072000A400704824180622A2566D4B1A706E4B16
:100730009A684B4610339B00D35898461B1A2F2BB0
:100740003AD96A4B984530D105AE694B33807B006E
:100750009A46D8198000634B984640440230654958
:10076000FFF712FF7080644BB380FF23B371F57104
:10077000019B07935744BF0047440ECE0EC7012389
:100780001C43A0465A4641464846FFF7D7FE09B0EB
:10079000F0BCBB46B246A946A046F0BD7421574BFB
:1007A000574AFF31574803F013FABD21564B544ABC
:1007B0004900544803F00CFA012342469A439246FA
:1007C000101A0C2101F05EFA00290FD153460026C1
:1007D000DA79AA4212D90621595600290DDB4A00BE
:1007E000521892001E003F4B9B18F1E78C21474B9B
:1007F000434AFF31434803F0EBF91E00002E3BD083
:1008000005AB434A1A80813A5A800623F356029375
:10081000002B17DA3F4805AB9A469880029A9A71E6
:10082000DD71019A0792301D2100FFF7ADFEB08007
:10083000B7717B00DB199B002A4FFF18534607CB8B
:1008400007C79FE77800C0198000264BC018043006
:10085000321DB388D90A1C2907D15B05591502310D
:1008600049005118FFF790FED5E716212A4B2B4A75
:10087000FF31244803F0ACF905AE1D4B33807B00FB
:100880000293D8198000174A90460200424403920E
:10089000901C1849FFF778FE7080039A101D51468E
:1008A000FFF772FEB0801E4B52464146521A52412B
:1008B00053431B0DB371F571019A0792029B9C463D
:1008C0006744BF0047440ECE0EC7114B52461380FB
:1008D000813B538001231C43A04653E7240100D0F1
:1008E000AD1B0020CC0B002000ED00E0CD0100107E
:1008F00000A1FFFFFC0B002001BDFFFF8471001071
:1009000060730010E8700010AC710010D47100101A
:100910000148000001BD0000587200105073001023
:10092000AAAA0000F0B5CE46474680B583B00600BF
:100930000D00EFF3108872B6564B1B68002BFBD0EE
:10094000BFF35F8F544B9A6834001034A300D7581C
:10095000524B9F4207D0AF4200D198E00197504BD5
:10096000FB1A2F2B09D9424639003000FFF7E6FD6C
:1009700003B0C0BCB946B046F0BD3000FFF74AFE38
:10098000814600213000FFF75FFEBFF35F8FEFF37A
:100990000581002901D08C4211D10123019C9C4387
:1009A0000022A3689D4212D00622A256002A0DDB27
:1009B00053009B189B002200394CE418F1E7FA2100
:1009C000384B394AFF31394803F002F922009D4281
:1009D00057D106256557002D39DB6B005B199A004E
:1009E0002F4B9B189A68A260DA79E27106229A5618
:1009F000A2719B795BB2002B0FDA2D48A0806B00AF
:100A00005B199B00264AD3182A4A117899711570F0
:100A100049463000FFF718FEA5E7201D6B005B1963
:100A20009B001F4A9B181A1D9B88D90A1C2907D1B5
:100A30005B055B15023359005118FFF7A5FDDDE793
:100A400016211D4B1D4AFF31184803F0C1F800293B
:100A500012D1002A0ED0FF239371194B9380154AAF
:100A60001378A371174B0E49641A644163431B0D3D
:100A70001370CDE7094FF2E7201D1349FFF7AAFDD8
:100A8000C6E7124B084A1249084803F0A1F8034F81
:100A900069E7C046240100D000ED00E0CD01001060
:100AA000CC0B00207072001030730010E870001042
:100AB00001BD0000AD1B00205872001050730010E3
:100AC00001BDFFFFAAAA0000060C0020A4720010BE
:100AD0003B02000070B5012101432D4BCB1A2F2B97
:100AE00028D8EFF30583002B2BD0EFF3108C72B6D0
:100AF000284A1268002AFBD0BFF35F8F264A040001
:100B0000234D641B64416243120D54B2234A926820
:100B10009B00D2588A421AD00022032A31D85300AF
:100B20009B189B001A49CB189B795BB2A3421ED03D
:100B30000132F2E79D211A4B1A4A89001A4803F044
:100B400047F81A4B174A1A49174803F041F8134A55
:100B500092681849D150184B1A7882711C70BFF3F3
:100B60005F8F0C4B00221A608CF3108870BD0D0053
:100B70005300991889006918FF268E710F4A8A80E0
:100B8000E9E7A2210E4B074A8900074803F020F845
:100B9000CC0B0020240100D0AAAA000000ED00E048
:100BA000AC72001004730010E8700010D4720010D2
:100BB00077020000CD010010AD1B002001BDFFFF3A
:100BC000E072001000B583B00100064B00930523CE
:100BD00000220548FFF75BFC002801DB1F23181AE1
:100BE00003B000BDE8720010B11B0020024B9C4610
:100BF00061448900016070474000003410B5040072
:100C0000FFF76EFC01002000FFF7F0FFFF232371C8
:100C1000BFF35F8F10BD10B50400FFF761FC01004A
:100C20002000FFF7E3FFFF23237100236371BFF36D
:100C30005F8F10BD10B50D4C09E00D4B0D4A1A2108
:100C40000D4802F0C5FF2000FFF7D8FF08340B4B1A
:100C50009C4209D22368002BF5D0012BEDD1200056
:100C6000FFF7D9FF0834F2E710BDC046A00C002002
:100C7000947300107C740010B4730010A80C002052
:100C8000034B9C46614489000160BFF35F8F70474E
:100C90004000003410B504000120FFF72FFC0100D4
:100CA0002000FFF7EDFF10BD00040843704700006F
:100CB0000A4B1A68EFF3108172B61368002BFCD050
:100CC000BFF35F8F054B1B68BFF35F8F00221A6075
:100CD00081F3108840BF002000217047841B002052
:100CE000F0B5DE4657464E464546E0B585B0EFF3D3
:100CF000058303221A4093469200B34BD35898467B
:100D00001B785B4507D101235A4693401A00039391
:100D1000AE4B1A6015E1AE4BAE4A9221AE4802F0DE
:100D200057FF5B004B44DB004246526992469A44AF
:100D300053469E68DF68A94800F0B0FB801BB941AC
:100D4000002900DA07E1002F60DB53461C69A44B41
:100D50009C4244D043460820185E5346598889B2C5
:100D6000FFF7A2FF53465969A04704000D00230076
:100D70002B434BD0002D3CDA30003900001BA94139
:100D8000009001915346009801999860D960002520
:100D90005D5F002D00DADEE043465C696B005B19A5
:100DA000DB00E3189A68DB68801A9941002900DAB1
:100DB000D1E043461D81474608370023FE5E002EE2
:100DC0001FDB7500AD19ED006519009A019BA8683D
:100DD000E968121A8B41002B13DB2F00EDE7534615
:100DE0005C6920002369984700280FD06568246853
:100DF000BDE77A4800F052FB00196941009001916B
:100E0000C0E753461E804B463B80A4E05346002279
:100E10009B5E424613811269EFF3108372B611682C
:100E20000029FCD0BFF35F8F42460221525E51463B
:100E30000A804246494651801269BFF35F8F002104
:100E4000116083F3108886E043461A69EFF310813E
:100E500072B61368002BFCD0BFF35F8F43469B88AC
:100E60001BB2994601235B42424693801369BFF34C
:100E70005F8F00221A6081F3108818E0260000239B
:100E8000F55E002D0BDB6C006419E4003C19009A40
:100E9000019BA068E168121A8B41002BEEDA4B46E9
:100EA0003380634600229B5E994663461D804B4615
:100EB000002B56DB43465F694B465B004B44DB002F
:100EC0009C46BC446346DC689B680093019446469C
:100ED0000836D4E700234246937141460831434621
:100EE0000820185E11E001225242D317A260E3608D
:100EF000434608229B5E834206D00D80434608226B
:100F00009B5E2380434618812800431C2DD0434616
:100F10005A6943001B18DB00D418D55E63881BB2E6
:100F2000002BE0DB2100EFE75B4604339B002B4AFC
:100F30009C502A4800F0B2FA241A8D41002D3ADC68
:100F400037D0264B039A5A63434608229B5E994644
:100F5000002B00DBE5E643469B881BB2002B00DB41
:100F600072E743469B79002BB4D1434608229A5E30
:100F7000002A20DB53009B18DB004246526994464E
:100F800063449C68DD68631C01D16B1CD1D0134B9A
:100F9000996A601A5A4604329200D3585B1A9842F2
:100FA000C2D30E4B1A6A012359468B401342C0D15B
:100FB000BAE7002CC5D040BF05B0F0BCBB46B24676
:100FC000A946A046F0BDC046681900203C70054007
:100FD0009074001094750010BC740010004005401F
:100FE000E10C0010F8B5CE46474680B506008846AD
:100FF00091461F00C160FFF773FA1B4B9C4660448B
:10100000800030614B463370BBB27381D022120630
:1010100012787270012252423281B2809B18738022
:10102000002406E0631E65002D19ED00726953531C
:101030000134BC42F6D34B469A000C4BD6500124E7
:101040004B469C4043461C6209494846FFF724FB37
:1010500001214846FFF7F8FA064941440C60C0BC3C
:10106000B946B046F8BDC0464000003468190020BB
:10107000E10C00103820000010B5064B1B69002B56
:1010800001D0044810BD044B044A6521044802F015
:101090009FFDC046140C0020087500107C750010E0
:1010A000BC740010F0B5C64600B504000069EFF34B
:1010B000108C72B601680029FCD0BFF35F8F02214B
:1010C000665E7500AD19ED00616988464544002EE5
:1010D00002DB0020295E61802169BFF35F8F002061
:1010E00008608CF31088002E2EDB06992961079981
:1010F0006961AA60EB606B8801335B04590C002BBB
:1011000000D1012169803000FFF7CEFD2269EFF3A5
:10111000108172B61368002BFCD0BFF35F8FA388D9
:101120002B80A6802369BFF35F8F00221A6081F3B2
:101130001088E368217801328A4005498C4663446F
:101140001A6080BCB846F0BD01204042F9E7C046B5
:101150003C20000070B582B0060014001D0008ABF2
:101160001B78002B07D100F0CBF922002B00121ABC
:101170008B41002B0ADB079B0193069B0093220007
:101180002B003000FFF78EFF02B070BD0020FBE7A0
:1011900010B5030008145A8990422FDA4200121841
:1011A000D2005869844662441C69EFF3108C72B611
:1011B00020680028FCD0BFF35F8F508880B20904FC
:1011C000090C884212D000201A69BFF35F8F0021FA
:1011D00011608CF31088002811D0DA681B78013177
:1011E0009940074B9C466244116008E0054908435A
:1011F00080B2508001229A710120E5E7002010BDE5
:101200003C2000000080FFFF40787047F0B585B0BB
:1012100006000F00EFF30583002B1AD10624644269
:10122000E517A4197D418D4202D803D1844201D92A
:101230000024002500F064F922002B00121A8B41D3
:10124000002B0BDC08D03000390000F06BF905B042
:10125000F0BD1C48FFF7D4F8002AF4D0FFF70CFFCC
:10126000002302930193184B009322002B00FFF7F9
:1012700071FF002818DAE6E7002300E00023002BC6
:10128000E1D1124B1A68EFF3108172B61368002B8C
:10129000FCD0BFF35F8F0D4B1B68BFF35F8F002245
:1012A0001A6081F3108820BF094B5B6A9D42E5D824
:1012B0000749896AA14203D29D42DDD00123DEE7BE
:1012C0000123DCE72C750010B10C0010841B0020FA
:1012D0000040054070B504000D0000F011F9001940
:1012E0006941002902DBFFF791FF70BD01204042F8
:1012F0000049F8E7FFFFFF7F10B5FA2292000023B4
:10130000002101F0F9FAFFF7E5FF10BDF0B5CE4678
:10131000474680B585B005000C00EFF30583002B30
:1013200015D0474B5B6A8B4209D3454A926A824289
:101330000BD28B4201D0012002E0002000E000200F
:1013400005B0C0BCB946B046F0BD0120F8E7FFF7D4
:1013500093FEC3689946037898462E0027004846B6
:1013600000F09CF802000B00B61A9F41434604337C
:101370009B004A469B58181A0023BB420FDC0CD036
:1013800020BF2F4B5B6A9C4224D82D4A926AAA4206
:1013900022D29C421CD00120D2E7B042F0D9FFF704
:1013A0006BFE002302930193264B00932A00230037
:1013B000FFF7D0FE061E11DD214B5B6A9C4221D84F
:1013C0001F4A926AAA4232D29C4219D001231AE0E3
:1013D0000020B5E70020B3E70120B1E7184B5B6AB6
:1013E0009C4209D8164A926AAA4207D29C4201D06E
:1013F0000120A5E70020A3E70020A1E701209FE747
:10140000002300E00023002B00D120BFFFF734FEB3
:101410003100FFF7BDFE0A4B5B6A9C420BD8084ABD
:10142000926AAA4209D29C4203D0012088E7012394
:10143000E9E7002084E7002082E7012080E7C0463A
:1014400000400540B10C00100048704700400540C6
:1014500010B50B4B1B69002B04D00A210948FFF77C
:10146000C5FB10BDFFF7F0FF0400032100F00CF8EE
:101470001023032221000248FFF7B4FDEDE7C04628
:10148000140C0020841B002010B5024A0248FEF70D
:10149000E5FF10BDAC750010F81400200200436A8F
:1014A000906A1900536A9942FAD17047416A00E084
:1014B000416A9942FCD300E0416A994202D1816AB3
:1014C0009142F9D37047F0B5C64600B58046140086
:1014D0001D00FFF7E3FF06000F0022002B0092190A
:1014E0007B41994202D804D1904202D90122524252
:1014F000D3174046FFF7DAFF80BCB846F0BD0000C6
:1015000010B50248FFF7CAFF10BDC04600400540B5
:1015100010B502000B000248FFF7D5FF10BDC04612
:101520000040054010B502000B000248FFF7BEFF67
:1015300010BDC0460040054070B5046BE30701D400
:10154000200070BD0B4BC3180B4A1A60456A826AB3
:10155000AD01AD18AD02062000F026F9074900F0F4
:1015600091FB0100280000F08DFB0021FFF7D0FF68
:10157000E6E7C04630300000010300004E0E0000D8
:1015800070B504000E001500FFF7D6FFE16A4E406B
:101590003540024BE3181D60206370BD2C10000025
:1015A00070B505000C00062000F0FEF8C000210018
:1015B00000F068FB0130C60907D00E4B9E4215D8DB
:1015C000400834003F26064000E001246C62AE6211
:1015D000002200212800FFF7D3FF062000F0E4F8E6
:1015E0008000A101891900F04DFB70BD0026024C5E
:1015F000ECE7C046FEFF0000FFFF0000002909D015
:101600000A22064B9C466044434258414000044B2A
:10161000C252704780225200F3E7C0460080FCBFF0
:10162000901B002070B505000C00062000F0BCF8EF
:10163000002828D0164B9D4226D016220123934025
:10164000144A1360124B9D4220D0162301229A4067
:10165000114B1A60114B1B6811009943FAD10021FC
:101660002800FFF7CBFF21002800FFF799FFEB6A66
:1016700070225A407E231340094AAA181360094B6E
:101680002B630323AB6470BD1722D7E71723DDE775
:101690000080034000E0004000F0004008C000402F
:1016A0002C10000001030000F8B5D646474680B56F
:1016B00006000D001700984644002418A400294B8A
:1016C0009C4664446368089A934200D26260331F68
:1016D000DBB29A46012B2ED980221201C0239B0136
:1016E000E3181A60B300204A9958002907D05069BE
:1016F00000F0C8FA431C5800C0180338FDD27F011F
:1017000022685740E022174080235B01E3181F60E6
:101710005246012A1AD980239B01E3188022120124
:101720001A60089B6360B6000F4B4246F250C0BC83
:10173000BA46B046F8BD012DCED10322C0239B018D
:10174000E3181A60A368DB07FCD5D8E72168694075
:1017500003220A401A60A3680122AA401A42FAD062
:10176000D9E7C04600800040FC140020F0B583B0EB
:1017700005000E0017001800089900F083FA030016
:10178000089A140200943A0031002800FFF78CFFF9
:1017900003B0F0BD10B582B0802464000094FFF760
:1017A00083FF02B010BD00008000014BC05870479D
:1017B000FC140020F0B5C64600B504000E0017006A
:1017C0001D00364800F05EFA8046354BFA18354B5E
:1017D0009A4238D80100380000F054FA0200103A5A
:1017E00098235B009A4234D86B1E062B37D8069B91
:1017F000013B062B33D83F09474536D32D04069BC2
:101800001A0315432368002B35DB274B9C4243D03A
:101810000C2301229A40254B1A60254B1A60254B58
:101820001B6811009943FAD12660A060224BE21890
:10183000212313602368002BFCDAE5600823136082
:1018400080BCB846F0BD1D4B1D4A11211D4802F059
:10185000BFF91D4B1A4A19211A4802F0B9F91B4B5E
:10186000174A1C21174802F0B3F9194B144A2321D7
:10187000144802F0ADF922683F231340B342C4D1AB
:10188000A3681B051B0D8342BFD1E368EE22D20281
:101890001340AB42B9D1D3E70D23BAE7001BB70021
:1018A00080E84BD380F8A93200C0024000E000403D
:1018B00000F0004008C0004004300000D075001067
:1018C000F8760010207600107476001090760010E4
:1018D000DC760010024B1A68024B5A607047C04613
:1018E000581900200080054010B5184B8022D20501
:1018F0001A60174B174A1A6000290AD0164BE022CB
:10190000D2041A60002809D1134B802212061A60F3
:1019100010BD0E4BE022D2041A60F3E74201121A06
:1019200093001B18DB000D4A13605B0013608022DC
:101930005204934202D3094B094A1A60FFF7CAFFC7
:10194000054B8022D2051A60E2E7C04600B0054090
:1019500008200140FCFF010000A0054058190020AC
:10196000FFFFFF0010B5030010000C4A8024E405BF
:101970001460002B0DD001221343094A094CD46195
:10198000094C5C401462516293620021FFF7ACFF86
:1019900010BD034B0022DA61F7E7C04600B00540F6
:1019A00000800540D3C007B02D3FF84F80239B0037
:1019B0000B43014AD36270470080054010B5010017
:1019C00018231B8814221088984710BD10B50100F9
:1019D00018231B8816221088984710BDF0B5C646FC
:1019E00000B507000E0000250123984600E00135F0
:1019F000B5420AD2AC003C192068FFF7DFFF206037
:101A00000028F4D100239846F1E7404680BCB84650
:101A1000F0BD000070B504000D000648FFF7CEFFD2
:101A20000300002C03DB0120A04029009847002080
:101A3000FBE7C04655420000074BAA2212011A607C
:101A40008D225200DA60054B054A1A60024B5B6832
:101A5000002BFBDA7047C0460040024000600240A5
:101A600000B0FA0010B5040001E008CC9847024B22
:101A70009C42FAD310BDC046D46F001070470000DE
:101A800010B50248FFF7EEFF10BDC046986F00107A
:101A9000054B064A1A60064B064A1A60064B1A683E
:101AA000044B9343FAD1704700E00040BFCDFBFEEA
:101AB00000F00040FE7F3C0008C00040044BDB6C9F
:101AC000002B03D1034B8022D2021A607047C0461C
:101AD000000011504C201150044B054A1A60054B70
:101AE0001B68DB43DB01FAD17047C04600F00040C1
:101AF000FFFFFF0108C00040034B40229A675A676E
:101B00001A67DA667047C04600F0014010B5FEF76C
:101B100005FD10BD70B5044CA168044DC02228001D
:101B200000F0AAFFA56070BD00ED00E000000020FD
:101B300070B50420FFF738FE064900F0A3F8050051
:101B40000024002C00DD70BDE0B22900FFF72EFF5D
:101B50000134F6E740420F0030B583B0274B002236
:101B60009A67FFF769FF264B01221A60234B5B6CD3
:101B7000012BFBD1234B03221A60204B9B6B012BC3
:101B8000FBD10133009304331F4A01211F48FFF7A3
:101B900011FE052300931E4A01211E48FFF70AFE8D
:101BA0001D4B002202210420FFF7F4FD1B4D2B00EA
:101BB000002201210520FFF7EDFD194C2300002232
:101BC00000210720FFF7E6FD230000220021082066
:101BD000FFF7E0FD8023DB000093230000220021BB
:101BE0000920FFF7C3FD2B00002200210620FFF78C
:101BF000D1FDFFF79DFF03B030BDC046008000401F
:101C00003CB0004030B00040002F685900800240D6
:101C1000008C864700C00240001BB7004059730784
:101C2000006CDC0201480421014B1847300C0020F5
:101C3000DD190010124A936F9B0815D29066D16689
:101C4000002905D0FFE7FFE7FFE7516F106F7047EE
:101C500004B580210906C2175140002800D0C843AE
:101C600005F052F9002104BDF0B5146E556E576FA2
:101C7000166FFFF7E3FF1466556657671667F0BDEA
:101C8000000000D0114A936F9B0813D21066516672
:101C9000002905D0FFE7FFE7FFE7516F106F70479E
:101CA00004B5002801D00020C04305F02DF9002123
:101CB00004BDC046F0B5146E556E576F166FFFF732
:101CC000E5FF1466556657671667F0BD000000D043
:101CD00094464A4A926F9208624601D228E0C04672
:101CE000F0B5464E346E756E776F366F00F020F8A3
:101CF0009446424A14665566576716676246F0BDB9
:101D000094463E4A926F9208624601D254E0C04621
:101D1000F0B53A4E346E756E776F366F00F04CF852
:101D20009446364A14665566576716676246F0BD94
:101D3000002B24DB11D000293EDA00B5C943404214
:101D400000D1013100F038F8C943404200D10131DF
:101D5000DB43524200D1013300BD002AEBD1002801
:101D600001D1002905D00020C90FC90701D1C04306
:101D7000410800B505F0C0F80022002300BD00B501
:101D800000290ADBDB43524200D1013300F014F892
:101D9000C943404200D1013100BDC943404200D196
:101DA0000131DB43524200D1013300F005F8DB433F
:101DB000524200D1013300BD002923D1002B18D19C
:101DC000002A0CD0BC460D4F38667A6600210023ED
:101DD000FFE7FFE7FFE77A6F386F67467047002835
:101DE00001D00748010000B505F086F80022002365
:101DF00000BD02000B00002000217047000000D051
:101E0000FFFFFFFF002B00D0BFE0130C28D1002AFA
:101E1000E7D080B4114F39667A66FFE7FFE730B448
:101E2000040C7B6F396F1B0423433B667A66FFE724
:101E3000FFE7FFE7C04684B27B6F3D6F1B0423437F
:101E40003B667A66FFE7FFE7C04600232C042D0CB3
:101E50007A6F386F00196941B0BC7047000000D03C
:101E6000F0B594460025140E01D112020835140F66
:101E700001D112010435940F01D192000235D40F23
:101E800001D152000135D40B0134254F7C66254C1D
:101E90003C660E0C93B2FFE7FFE7FFE73C6F66433B
:101EA000360C7703BE467343DF0B5B04C01AB9419F
:101EB000130C7343DB18C91ACE086643360CB644BC
:101EC00093B273431F0F1B01C01AB941130C734324
:101ED0001F0B1B05C01AB941860D8F023E43664396
:101EE000360C092D24DB520A7243801A7703460A06
:101EF0006643360C16235B1BDE40DF40BF19644689
:101F00006643821B7046043506330100D940A84061
:101F1000C01900D30131A24206D20023F0BD000057
:101F2000000000D0FFFFFFFF121B0130F3D3F1E7E9
:101F300009277F1BFE406446A2B27243801A00D27A
:101F40000139220C7243130C1204821A99410B00BE
:101F50007046043513370100F940A840801900D3BA
:101F60000131002B02D1A2420AD2F0BD013000D3D0
:101F70000131121BFAD2013BF8D1A24200D2F0BDCE
:101F8000013000D30131121BF7E7F0B51C0C00D073
:101F900080E00CB400251C0A04D11B02160E33434A
:101FA000120208351C0B04D11B01160F334312011A
:101FB00004359C0B04D19B00960F334392000235ED
:101FC000DC0B02D192185B4101351C00971864416B
:101FD0000134464F7C66464C3C660E0CFFE7FFE73B
:101FE000FFE7C0463C6F6643360C7703BE4697B2A8
:101FF0007743C01B00D20139C01B00D201399FB208
:102000007743C91BC91B170C77437E04FF0B801B4A
:10201000B941CE086643360C0C2D33DBB644120BA7
:102020001F053A431B0B97B27743C01B00D20139FF
:102030009FB27743C91B170C77433E043F0C801BAC
:10204000B941860D8F023E43664329277F1BFE4020
:102050000C3D7746AF40BF1930BCA2B2ABB2724361
:102060007343801A9941220C7243130C1204801A94
:10207000994102000B000137001BA941F9D2781EDB
:102080000021F0BD0C277F1BFE4077467F0BAF4041
:10209000FF19E0E700245D1C07D0144F7D66396608
:1020A000FFE7FFE7FFE7FFE73C6F95B29EB26543AE
:1020B0006643401BB141150C1E0C65436643360454
:1020C0002F0C3E432D04401BB141994204D2020023
:1020D0000B0020000021F0BD01D19042F7D3801AFF
:1020E000994101349942F2D3F6E70000000000D094
:1020F000FFFFFFFF48404140484018B41B4B5B685E
:10210000FC46019308BD04DFCB23001018B4174B25
:102110001B68FC46019308BD00DFD52300109446E0
:10212000134A926F920809D2624618B40F4BDB68CB
:10213000FC46019308BD0CDF8D2600100C4AF0B55B
:10214000146E556E576F166F6246FFF7EEFF084A22
:102150001466556657671667F0BD18B4034B9B6845
:10216000FC46019308BD08DF3125001080190020CE
:10217000000000D0FFB550404240504059404B4015
:10218000594000E0FFB5154F4C00640D03D0BC4230
:1021900004D10C0314D80020090D09055C00640D5E
:1021A00003D0BC4204D11C030AD800221B0D1B051E
:1021B00001264B4009D44B4003D58B4200D18242CB
:1021C000FFBD9942FCD19042FFBD0B43DB18034396
:1021D0001343F5D0C9434918FFBD0000FF070000B5
:1021E00000B5FFF7CFFF804100BDC04600B5FFF747
:1021F000C9FF01D9002000BD012000BD00B5FFF7D7
:10220000B9FF01D9002000BD012000BD00B5FFF7D6
:10221000B1FF804100BD012040054A00121804D8DA
:102220005A00121801D800207047012070470000A2
:102230000021002805D17047C1174840401AFAD044
:10224000C90713B5064B1B6898470CBC441CA24039
:102250001005120B0349091B09051943114310BD51
:10226000801A00201F04000010B54C00620D80236E
:10227000D218DB00D21A5B057E2A10DD9E3A13DAF3
:10228000CC170903490819435242D1406400013474
:102290001532202A05DAD0400843604310BD0020E3
:1022A00010BD0846604310BDC80FC018013810BDEE
:1022B00018B4044B5B6AFC46019308BD24DF3D283B
:1022C000001000008019002070B513231C78012C29
:1022D00014D0012C14DC022C02DC1F4A1F4B9A6420
:1022E0001F48FFF76BFB1F4B186070BD99001A4821
:1022F0001A4A885001331F2BF8D9EAE70023FAE77E
:102300001948FFF763FB05001848FFF75FFB023829
:1023100003789B007F2B19DD802229000F4800F0F5
:10232000ABFB022CD7D1124B1A88B5231B029A4261
:1023300009D1104B1A88104B9A4204D10F4B1A88BE
:102340000F4B9A42C7D00020FEF75AF80D4B0E4AA9
:1023500033210E4801F03CFC91230010801900202D
:102360004C330000801A0020534400005346000004
:1023700054380000D8380000494600009C3800005E
:102380005946000004770010AC7700104877001021
:1023900007B56046002800D100BE01880A0A023055
:1023A000DF2AFAD1C9B2820804D302884088000427
:1023B000104300E00068024A5050039007BD00003F
:1023C000801900200FB403BC0CBCF0B50124E40755
:1023D000634000E0F0B50C0DCF0F661E3605891B7B
:1023E000640503D3C943404200D30131640D03D0D7
:1023F000661CF60A07D0E41B00207F00791C8907C1
:102400008912803C24031D0DDF0F6E1E36059B1BB9
:102410006D0503D3DB43524200D301336D0D03D06E
:102420006E1CF60A07D0ED1B00227F007B1C9B0769
:102430009B12803D2D032F1B661B58D4A446202ED3
:1024400046DA20371400BC401D00BD40F240334145
:102450002A4380185941CB0F05D0C943C0430022FD
:1024600064425041514162464D0D28D10D0D07D1B6
:1024700000281FD0241940414941013A0D0DF9D0DF
:10248000640006D3013000D30131002C01D1400893
:102490004000013A0BD4941CE40A04D11205114403
:1024A000DB071944F0BDD907204B194300E0D907D9
:1024B0000020F0BD0029DDD1002CDBD1F0BD0132C0
:1024C000C6074008CD0728434908002EE1D0D9E7C8
:1024D0003C2E29DA203E40371400BC4000D00124B5
:1024E000F24014431A00BB401C43D317ACE7AC4680
:1024F000202F08DA20360400B4400D00B540F84023
:1025000039412843A5E73C2F0CDA203F4036040030
:10251000B44000D00124F84004430800B1400C430B
:10252000C117EAE710001900002494E70000F07FCB
:10253000F0B50C0D661E3605891BE60A6405640DB0
:1025400002D0651CED0A04D0002001210905803C61
:102550002403A4461C0D671E3F05DB1BE70A640528
:10256000640D02D0651CED0A04D0002201231B0576
:10257000803C24037740644497B484B296B2744399
:10258000070C7E43150C6F4380B26843361802D3A4
:10259000012000043F183004350C00197D418446A9
:1025A00088B29AB250430C0C62431F0C7C438EB22B
:1025B0007E43921902D301263604A4191604170C7F
:1025C0003618674101BC81B29AB25143040C624390
:1025D0001B0C5C4380B25843121802D30120000444
:1025E00024181004130C401863412D185E4100207C
:1025F000474106BC88B293B258430C0C6343120C9B
:10260000544389B251435B1802D301210904641871
:1026100019041A0C091862416D18564100204741EF
:1026200018BCF902720D1143F0026A0D1043ED025D
:102630000A0D03D16D1940414941013B124E9B1BCC
:102640007600B3420ED26D0007D3013000267141EF
:102650006646354301D1400840001B05C918E40710
:102660002144F0BD0BDA013306D1013004D1013130
:102670004F0D01D04908F2E7E1070020F0BD013617
:1026800031050020EBE70000FF030000F0B51C0D52
:10269000671E3F05DB1BE70A6405640D02D0661C5C
:1026A000F60A04D0002201231B05803C2403D02518
:1026B0002D060026F6432E661E096E66CE0FF6190D
:1026C000B44649004F0D02D07E1CF60A03D000200C
:1026D0000021403F3F033E1BB600B444013F7F054D
:1026E000C91B49082E6F013676089C02950D2543BB
:1026F0007543ED137543AD1301356D10F603761B6D
:102700000CB4CC02450D2C43A2B2B3B25A43270CF1
:102710007B43350C6F43A4B26C431B1902D30124D5
:1027200024043F191C041D0CA4187D4124196D417B
:10273000009A91B2ACB26143170C7C432B0C5F43FF
:1027400092B25A43A41802D301221204BF182204E1
:10275000230C52187B41019C6C431B19520ED9016A
:102760000A434401A01A81B2B2B2514303145A433E
:10277000360C734387B27743D617D21900277E41B0
:1027800036049B191704160C7F185E417316ED185A
:10279000F301002680337541A90F06D16400690A50
:1027A000E8055B0A184309D22FE0042294448033E1
:1027B0007541A90AA8059B0A184326D340414941FF
:1027C0002404009A019B0D005543641B4343E41A03
:1027D00095B286B27543170C7E43030C5F4392B2E9
:1027E0005A43B61802D301221204BF183204330C24
:1027F00052197B4152429C41002C02D400220130EC
:1028000051414008CA071043490802B06246D70741
:102810009210084BD218084B9A4203D2120589181D
:10282000C919F0BD0020002A01DC3900F0BD0133D8
:102830001905F5E7FD030000FE070000002200B5C2
:10284000203200F004F8080000BD000000220B1543
:102850000AD410B5944600F031F81414013400DAAB
:102860000021CB17144C2047002000217047624400
:10287000343A0CD40C2A07DA0400914090405242BA
:102880002032D440214310BDD843D94310BD20325B
:1028900007D40C469440524220321141D04020438C
:1028A00010BD0800C917203203D452422032104113
:1028B00010BD1800190010BD6F2800100A0DCC0FB4
:1028C000531E1B05C91A520503D3C943404200D306
:1028D0000131520D03D0531CDB0A07D0121B00201C
:1028E0006400611C89078912803A1203014BD21AD5
:1028F00070470000FF03000051434343C9188C4652
:10290000110C83B24B4310B4040C614392B280B2F9
:10291000504362431C041B0C001910BC59411304A2
:10292000120CC018514161447047000070B5132368
:102930001D782A48FFF74AF80400012D11D0012D17
:1029400009DDA31E1B789B007F2B40DD8022210028
:10295000234800F091F82348FFF730F8224B186025
:1029600070BD542201001E4800F086F81F4B1A88E3
:102970001F4B9A421CD1A7239B011A881D4B9A42D8
:1029800016D11D4B1A881D4B9A4211D11C4B1A8827
:1029900094239B019A420BD11A4B1A881A4B9A42E4
:1029A00006D11A4B1A681A4B9A4201D1152307E037
:1029B0001848FDF725FD99001748094A885001334A
:1029C0001F2BF8D9144A064B1A62DA61B7E7134B8A
:1029D000134A4221134801F0FBF8C0465346000059
:1029E000841A00204C330000801A0020EE290000D9
:1029F000C40F0000C20D0000962B0000C0B50000FF
:102A0000182B0000CC2A000010B50000FC2C0000A0
:102A100051ED8764647B0010292A0010C0770010F4
:102A200058780010F477001007B56046002800D1F0
:102A300000BE01880A0A0230DF2AFAD1C9B2820830
:102A400004D3028840880004104300E00068024A72
:102A50005050039007BD0000841A00200148042153
:102A6000014B1847400C0020DD190010014B1B687A
:102A700018470000400C0020014B5B68184700001D
:102A8000400C0020704710B5002802D00B68496840
:102A9000984710BD0100002007E083001B185B0071
:102AA000501C08601078C01830380A681378303B22
:102AB000DBB2092BF1D97047F0B5DE4657464E46DA
:102AC0004546E0B583B093461F000C9B9A460D9C8B
:102AD0000E9B99460F9B9B0703D0B8460F0006003C
:102AE00022E00192A34688464E46B9460700B4420A
:102AF00007D2551C4B4641462020B84701342A00D6
:102B0000F5E73D004F465C46019B9B46B146464675
:102B1000B84637002E0007E0013C551C5346185DAF
:102B200043463900B0472A00002CF5D135003E005D
:102B300047460F9B9B0707D4100003B0F0BCBB4671
:102B4000B246A946A046F0BDB0464E46B9462F0053
:102B50005D46531BB342EFD2541C4B4641462020E6
:102B6000B8472200F5E7F0B5CE46474680B585B0B8
:102B7000944698460C9D0D9C0EAB1B789946109A76
:102B8000119B129EB7071CD4002B0CD0F7070AD557
:102B90004F46002F02D10C37374204D0013B02E0F0
:102BA00030272F550134944201D21F2CF8D9F70752
:102BB00007D59C4205D21F2C03D830272F5501344E
:102BC000F5E7F70615D5770505D4002C03D0944218
:102BD00024D09C4222D00F9A102A2BD00F9A102A70
:102BE00030D00F9A022A35D01F2C02D830222A5515
:102BF00001341F2C05D84A46002A31D02D222A55EF
:102C00000134039602930194009543466246FFF710
:102C100053FF05B0C0BCB946B046F0BD621E012CE2
:102C200006D00F9F102F01D01400D4E7023CD2E74A
:102C30001400D0E7B206D1D41F2CCFD878222A5561
:102C40000134D1E7B206CCD51F2CCAD858222A5558
:102C50000134C9E71F2CC7D860322A550134C3E7B5
:102C6000720703D52B222A550134CAE73207C8D58B
:102C700020222A550134C4E7F0B5DE4657464E46B9
:102C80004546E0B593B081468A46089209931CAB4D
:102C900010CB1B789B461E9D219B9846002C03D190
:102CA000102342469A4390468023DB0046461E404E
:102CB00042461A4212D0002C22D000260EE03033B9
:102CC000D9B2771C0AAB995529002000FEF7DAFF2C
:102CD000AC4216D31F2F14D83E0004002900200058
:102CE000FEF7D0FFCBB2092BE9D94246920605D5B3
:102CF0004121C918C9B20A39C9B2E2E76121F8E72E
:102D0000270043460693209B05931F9B049303953E
:102D10005B46029301970AAB0093099B089A5146C0
:102D20004846FFF720FF13B0F0BCBB46B246A946A9
:102D3000A046F0BDF0B5DE4657464E464546E0B5E6
:102D400095B0089009910A920B931E9E1F9C20AB90
:102D50001B789B46229B9946239D269B9A463300CF
:102D6000234303D1103352469A4392468023DB001B
:102D700057461F4052461A4219D0330023432DD0E4
:102D8000002714E03033DAB27B1C98460CABDA55DE
:102D90004A462B0030002100FEF7B2FFA5421FD8A3
:102DA00019D043461F2B1BD8474606000C004A4645
:102DB0002B0030002100FEF7A3FFD3B2092BE1D98D
:102DC0005246920605D54122D218D2B20A3AD2B260
:102DD000DAE76122F8E7B145E3D901E0002398463C
:102DE00053460693259B0593249B04934B460393DC
:102DF0005B460293434601930CAB00930B9B0A9AEC
:102E000009990898FFF7AFFE15B0F0BCBB46B24673
:102E1000A946A046F0BD0000F0B5DE4657464E4636
:102E20004546E0B591B083468A460C9298461A9C76
:102E300008941B9D099522002B0020002900FFF714
:102E4000EAF9002800D0E5E001225242D74B2000E9
:102E50002900FFF7DBF9002800D0DBE00122524215
:102E6000D34B20002900FFF7BBF9002800D0D1E0A8
:102E700000220023089E3000099D2900FFF7B0F9C9
:102E8000002800D0DDE0089809990690079180237A
:102E9000DB001E9A1A400D921E9A1A4201D1062397
:102EA0001C930698079904000D000A0006000243CF
:102EB00000D1D1E0080D4005400DBE4CA446604451
:102EC0000A03120BBC4B13431F00FFF7B5F9BB4AB3
:102ED000BB4BFFF742F9BB4ABB4BFFF717F90400A6
:102EE0000D000022B94B30003900FFF706F9B84A4F
:102EF000B84BFFF732F902000B0020002900FFF762
:102F000005F9FFF7B1F98146FFF796F904000D00C6
:102F1000B14AB24BFFF721F90022B14BFFF7F6F8A7
:102F2000FFF7A2F90600AF4AAF4B20002900FFF7D8
:102F300014F904000D003000FFF77EF9AB4AAC4BEA
:102F4000FFF70BF902000B0020002900FFF7D5F86E
:102F500004000D0002000B00FFF7FFF80A900B9130
:102F6000A44BF31800261F0522002B002000290087
:102F7000FFF7CCF80E900F9122002B00002080214B
:102F8000C905FFF7BAF804000D0000229A4B0A9811
:102F90000B99FFF7C4F80022984BFFF7B7F802002F
:102FA0000B000A980B99FFF7BAF80022944BFFF731
:102FB000ADF802000B000A980B99FFF7B0F8020079
:102FC0000B0020002900FFF7A1F802000B000E986B
:102FD0000F99FFF7A4F80022774BFFF797F832001C
:102FE0003B00FFF7BAF806000F0004000D00069A38
:102FF000079BFFF70BF9002830D001235B429C466A
:10300000E14400227D4B30003900FFF788F80400CE
:103010000D0023E01E9B04931D9B03931C9B0293B6
:10302000089A099B0092019343460C9A51465846D0
:1030300000F0FCF811B0F0BCBB46B246A946A04671
:10304000F0BD0023002406930794069680231B06F8
:103050009C46654407951AE7002399464B4663331F
:10306000C62B1ED804261E9B1B0526D52B002343EA
:103070000FD0644A644B06980799FFF7BFF8002801
:1030800079D00022614B06980799FFF7A9F800282C
:1030900071D01C9B4B4506DD4A46981A431E1C9373
:1030A00003E00526DFE700231C938023DB001E9A44
:1030B0001A431E920026002399461D9B9E4264D20D
:1030C0009F1B02231E9A1A400A921E9A134202D094
:1030D000002E00D000274B46002B07D022002B00EB
:1030E00006980799FFF71BF8069007910022002326
:1030F00008980999FFF774F8002848D1444B1E9AA4
:103100001340049303971C9B0293069B079C009318
:10311000019443460C9A5146584600F087F8002E19
:1031200000D187E71E9B9B063DD54525441C4346A1
:10313000020051462800D8474B46DA179B185340E7
:1031400005220592013E0496002203920A32029261
:103150004A46D00F019000934346220051465846FC
:10316000FFF78AFD0A9B002B00D163E702005F4650
:103170000C9E1D9D54E01C9B002B9ED00D9B002B94
:103180009BD01C9B013B1C9397E7002799E7069C6B
:10319000079D2200290080200006844661440B0020
:1031A00006920793AAE76525C0E7C046FFFFEF7FB9
:1031B000FFFFEFFF01FCFFFF0000F03FFB799F5096
:1031C0001344D33FB3C8608B288AC63F0000F83F42
:1031D00061436F63A787D23F71A379094F930A4078
:1031E0000000E03F1655B5BBB16B0240EF39FAFE67
:1031F000422EE63FFF03000000002C400000244068
:10320000000018402D431CEBE2361A3F80842E410B
:10321000FFF7FFFF541C434651462020B8472200C9
:10322000931BAB42F6D3100004E7C046F0B5DE4670
:1032300057464E464546E0B595B0069007919346F1
:103240009946209F1E9A1F9B10001900FEF7E3FF6E
:10325000002831D101225242BF4B1E981F99FEF720
:10326000BFFF002837D101225242BC4B1E981F9944
:10327000FEF7CCFF00283DD10022B94B1E981F99C4
:10328000FEF7C4FF002850D10022B64B1E981F99AC
:10329000FEF7A6FF002848D1002200231E981F99A0
:1032A000FEF79EFF002850D100239846229B5B0525
:1032B00000D4B6E0002458E0229B0393219B0293A4
:1032C00003230193A84B00934B465A46079906984F
:1032D000FFF7F2FB0EE1229B0393219B0293042351
:1032E0000193A24B00934B465A4607990698FFF765
:1032F000E3FBFFE00423229A1A4022990B4210D0EC
:103300009B4B002A0FD0042222990391219902910C
:10331000019200934B465A4607990698FFF7CCFB5B
:10332000E8E0944BEDE70322EEE7229B0493219B18
:10333000039302971E9B1F9C009301944B465A4691
:1033400007990698FFF768FDD4E01E9A1F9B00209E
:103350000021FEF7D2FE1E901F9101239846A5E79B
:103360000CAB30221A55013F01341F2C01D8092F14
:10337000F6D81E981F99FEF777FF0500FEF75CFF51
:1033800002000B001E981F99FEF7B7FEFA007A4B59
:103390009B181A685B680A920B93FEF7DEFE089092
:1033A0000991FEF785FF0600FEF742FF02000B00C1
:1033B00008980999FEF7A1FE0890099100226F4B29
:1033C000FEF724FF00282ED001363000FEF730FF34
:1033D00002000B000A980B99FEF708FF002801D0A5
:1033E00001350026002F2CD12800FEF725FF020012
:1033F0000B001E981F99FEF780FE06000F000022AA
:103400005E4BFEF7EDFE002846D100225B4B3000FC
:103410003900FEF7FBFE00283ED1EB073CD5013515
:103420003AE0062746E70022544B08980999FEF730
:10343000D7FE0028D6D1002E01D0F307D2D5013611
:10344000D0E7AA461F2C11D8013F0A213000FEF711
:1034500019FC651C30310CAB19550A213000FEF700
:1034600011FC092E0ED906002C00EBE755461F2C47
:103470000CD87B1E002F09D00CAA302111551F003B
:103480000134F4E72B0055461C00F0E71F2C03D84D
:103490000CAB2E221A5501341F2C10D80A212800FB
:1034A000FEF7C8FB661C30310CAB19550A21280009
:1034B000FEF7C0FB051E01D03400EDE73400032306
:1034C000229A1340012B1CD01F2C06D84346002BF8
:1034D00032D00CAB2D221A550134229B0393219B31
:1034E000029301940CAB00934B465A4607990698F9
:1034F000FFF7E2FA15B0F0BCBB46B246A946A046BB
:10350000F0BD219B002B13D04346002B02D10C337E
:1035100013420FD0219B013B2193190003E00CAB18
:1035200030221A5501348C42CED21F2CF7D9CBE76A
:103530002199F8E72199F6E7229B5B0704D50CABAC
:103540002B221A550134C8E7229B1B07C5D50CABAB
:1035500020221A550134C0E7FFFFEFFFFFFFEF7F86
:1035600065CDCD4165CDCDC1187900101C79001015
:10357000107900100C790010087B00100000E03F6B
:10358000F0B5DE4657464E464546E0B593B0824616
:103590008B4690461193002900D1EBE20027554657
:1035A000119B1878002800D1E7E2252809D07C1C5F
:1035B00043463A005946A847119B0133119327000F
:1035C000EEE7013311930024119A11780B00203B90
:1035D000D8B2102803D88300D048C3589F460B00A8
:1035E000303BDBB2092B2CD92A292FD000230A9398
:1035F000119B1A782E2A39D000239A46119A1378F3
:10360000683BD9B2122976D88B00C549CB589F4662
:1036100001231C4301321192D6E702231C430132DD
:103620001192D1E704231C4301321192CCE7082305
:103630001C4301321192C7E710231C43013211923F
:10364000C2E711A8FFF726FA0A90D1E71C9B1A1DC2
:103650001C921868002804DB0A90119B0133119317
:10366000C6E702231C4343420A93F6E78022D200B6
:1036700014435A1C11925A781300303BDBB2092BC9
:1036800004D92A2A07D000239A46B7E711A8FFF7E2
:1036900001FA8246B2E71C9B1A1D1C92186800288A
:1036A00004DB8246119B01331193A7E70020F8E762
:1036B00080235B002343511C119152786C2A01D066
:1036C0001C0018E0C0239B001C430131119112E043
:1036D00080232343511C11915278682A01D01C0089
:1036E00009E0C0231C430131119104E080235B00F9
:1036F0001C4301321192119B18780300253BDAB26A
:10370000532A00D92CE29300864AD3589F4680233F
:103710009B001C4301321192EDE780235B001C43A8
:1037200001321192E7E7782809D0582838D06F285D
:1037300038D0622838D010239C430A2600E0102697
:10374000582833D0692803D0642801D00C22944330
:10375000630501D50122944369282AD0642828D022
:10376000A30500D59FE0E30500D5B8E0630600D4CB
:10377000CAE01C9A111D1C911168FF220A40059491
:103780000A9B0493534603930296002301930092ED
:1037900043463A0059462800FFF76EFA070027E033
:1037A0001026CDE70826CBE70226C9E720221443DE
:1037B000C8E7A30520D4E30550D4630666D51C9A58
:1037C000111D1C911168FF220A40D317D1185940CE
:1037D00005940A9B0493534603930296D20F0192D9
:1037E000009143463A0059462800FFF745FA070082
:1037F000119B01331193D3E61C9BDA1D07218A43E9
:10380000110008311C91116853689C46DB170C931A
:103810000D930C9A0D9B100048400E906246534049
:103820000F930E980F990C9A0D9B801A99410E9048
:103830000F9108940A9B079353460693049600231E
:1038400005936346DA0F02920090019143463A00D5
:1038500059462800FFF76EFA0700C9E71C9A111DA8
:103860001C911268D317D118594005940A9B0493F0
:10387000534603930296D20F0192009143463A00B9
:1038800059462800FFF7F8F90700B1E7230605D5E8
:103890001C9A111D1C910023D25E96E71C9A111DE3
:1038A0001C91126891E71C9BDA1D07218A431100C5
:1038B00008311C9108940A9B07935346069304967B
:1038C00000230593029313685468009301944346C0
:1038D0003A0059462800FFF72DFA070088E71C9A9E
:1038E000111D1C9105940A9B049353460393029661
:1038F000002301931368009343463A005946280079
:10390000FFF7BAF9070073E723060DD51C9A111DBE
:103910001C9112681204120C31E7C0462479001081
:1039200068790010B47900101C9A111D1C9112685E
:1039300025E746281AD01C9B0733072293431A0019
:1039400008321C9204940A9A0392524602925C68CE
:103950001B680093019443463A0059462800FFF73C
:1039600065FC0700119B0133119319E620231C43CA
:10397000E1E7672801D0472802D180231B011C43BF
:10398000452801D0472801D120231C431C9B073325
:10399000072293431A0008321C9204940A9A039255
:1039A000524602925C681B680093019443463A00B9
:1039B00059462800FFF730FA0700119B0133119395
:1039C000EEE502231A002240924623421FD0012432
:1039D0001C9B1A1D1C927A1C9146187843463A008B
:1039E0005946A8475346002B16D1119B013311931A
:1039F0004F46D5E5561C434659462020B84723007C
:103A000032005C1C9D42F5D83D001700E0E7012321
:103A10003A002F000A9DF4E74A46A9460A9D06E0AF
:103A2000571C434659462020C84734003A00661CBC
:103A3000A542F5D84D469146D7E71C9B1A1D1C920E
:103A40001B6899465346002B00D1013B4E4601E0CE
:103A5000013613003278002A02D05A1E002BF7D10B
:103A60004B46F21A10928023DB0026001E401C42B7
:103A700003D0524501D95346109302231A00224025
:103A80000B92234205D03A0037004C46A9465546D2
:103A900020E03A00109B5F46B3462E0006E0551C1E
:103AA000434639002020B04723002A005C1C0A99B5
:103AB0009942F4D835005E46BB46109437004C4618
:103AC000A946554606E01D000134561C434659469A
:103AD000C84732002078002804D0002FF4D06B1E95
:103AE000002DF0D117004D460B9B002B03D1119BED
:103AF0000133119354E50A9F109B06E0561C434680
:103B000059462020A847230032005C1C9F42F5D86C
:103B10001700ECE721231C431C9B1A1D1C921B68F9
:103B200000930594082304935346039310230293B0
:103B30000023019343463A0059462800FFF79CF8BA
:103B40000700119B013311932AE57C1C43463A0080
:103B500059462520A847119B0133119327001FE5E3
:103B60007C1C43463A005946A847119B01331193E8
:103B7000270015E50A4B9A4610E5AA46474502D3A9
:103B800043465A1E00E03A00434659460020D047BB
:103B9000380013B0F0BCBB46B246A946A046F0BD03
:103BA000852A001000B585B0029003910121009391
:103BB00013004A4202A90248FFF7E2FC05B000BD2B
:103BC000872A001000BEFDE710B5FFF7FBFF0000DD
:103BD00010B582B00C001900002A0CD0084B002A46
:103BE0000BD00192009323000200064800F062F916
:103BF0000120FFF7E7FF044BF1E7034AF1E7C04676
:103C0000587B0010687B0010647B001010B5EFF348
:103C10000583002B00D000BEFDF732FF034C01E00E
:103C200008CC9847024B9C42FAD310BDD46F0010C9
:103C3000DC6F001010B50300080011001B689847E6
:103C400010BD0000F8B507000D001600437D002BE5
:103C500002D0002400200CE00368110028009847DF
:103C60002DE03B7D10E0022115483B689847601C21
:103C70000134B44214DA002CF3DD2B19013B1B781C
:103C80000D3B5A425341DBB22A5D0A2AF0D1002B88
:103C9000EED1A042E7DA211A28183B689847E2E7FC
:103CA000B04203DA311A28183B689847002E06DD27
:103CB000AD19013D2B780D3B5A4253413B75F8BD80
:103CC000987B001070B505000368002B16D00C4BD4
:103CD0001C6805E0290004C92000FFF7B3FF246930
:103CE000002C09D02368002BF9D0064B1B68002B51
:103CF000F0D0A342F3D1EDE700232B6070BDC046A6
:103D00004C1500205415002070B505000C000B6800
:103D1000802B05D021684B1C23606418257170BD71
:103D20000800FFF7CFFFF5E710B5FDF7E9FB074AFD
:103D3000002312184B41002B03DB054803F00CF95C
:103D400010BD01225242034BF7E7C04640420F002C
:103D5000A00C0020FFFFFF7F10B5024803F0C4F85D
:103D600010BDC046A00C0020F0B5CE46474680B539
:103D700083B006000D0090461C00FFF7D5FF81467A
:103D80006B1C05D0002C08D0184F194B1C6807E09D
:103D9000300003F067F80500F4E7164FF5E72469F3
:103DA000002C17D02368002BF9D0134B1B68002B75
:103DB00001D0A342F3D12A0031002000B847434686
:103DC000002BECD06B46D91D0A230B70012220007A
:103DD000B847E4E74B46002B05D1280003B0C0BC30
:103DE000B946B046F0BDFFF7B7FFF6E7453C001017
:103DF0004C150020353C001054150020094A01E004
:103E000010331A001368002B08D08342F8D1002920
:103E100007D1036913600023036102E0002900D089
:103E2000106070474C15002010B5064B1C6801E06F
:103E300098472469002C03D06368002BF8D1F8E779
:103E400010BDC0464C15002010B500F041F900F03F
:103E5000BDFA012010BD70B5050003F003F80400A1
:103E60000123012201002800FFF77EFFFFF7DCFF9E
:103E7000200070BD70B5A2B004000E00FFF754FF23
:103E80000500002301933300220001A90848FFF731
:103E900089FE040001A8FFF715FFFFF7C5FF002DFD
:103EA00002D1200022B070BDFFF756FFF9E7C046EF
:103EB000093D00100FB400B583B004A901C90191F8
:103EC000FFF7D8FF03B008BC04B01847F0B583B0C3
:103ED00005000E0000240FE06B46D91D0D230B706A
:103EE0000020002816D193699B06FCD40B78136040
:103EF00001300131F5E70134B44219DA0D4B1A688B
:103F00002F5D0D4BD31859424B415B000B495B5E53
:103F1000BB42E1D06B46D91D0F7000200028EAD1CA
:103F200093699B06FCD40B78136001300131F5E7EF
:103F300003B0F0BD941B00200080FCBF901B00204C
:103F4000F0B583B006000F00002504E06B46073390
:103F50001B782B702500BD4215DA164B1A68936941
:103F60001024210019401C420DD16C1C75196B46A0
:103F7000D81D0029EAD19369DB06FCD413680370CD
:103F800001310130F5E70C4B1B68002B0AD0094BBF
:103F90001B6850229A63596B183A0A4007498C46AD
:103FA00063441A60002D02D0280003B0F0BD033D29
:103FB000FAE7C046941B0020E414002034100000EF
:103FC00010B5064B1B68002B06D0054A126800216D
:103FD0009163044A1068984710BDC046E41400205D
:103FE000941B0020EC140020024B1A6893691B07F5
:103FF000FCD47047941B002070B51E4B1B681E4AF2
:10400000934209D01424002803D01C4A1268002AC5
:1040100004D000281AD070BD1524F4E7174B18609F
:10402000174B196017492000FCF736FB01212000CF
:10403000FCF70AFB0F4B1B6850229A63596B183A26
:104040000A4011498C4663441A60E4E70B4A12683F
:10405000002AE0D000259D6300212000FCF7F4FA3F
:1040600008492000FCF75EFC044B1D60044B1D60FA
:10407000D1E7C046941B002000800340E4140020D8
:10408000EC140020C13F00103410000070B50D008A
:104090001C000D4B1860002A0BDA002C0EDA0A4BBC
:1040A00018682900FDF7BEFA01210848FFF7A6FEAF
:1040B00070BD02211000FCF757F9EEE70221200045
:1040C000FCF752F9EBE7C046941B0020500C00208F
:1040D00010B5074B1B78074B1B78074B1B78E1216A
:1040E0000123002249020548FFF7D0FF10BDC0465A
:1040F0006C8500107085001074850010004003402E
:1041000070470000014B00221A707047AE1B002060
:104110004B79FF2B0CD18B79002B0BD1CB79012B59
:104120000AD1082A0AD98A78054B1A70092000E0BA
:10413000002070470020FCE70020FAE70020F8E7A5
:10414000AE1B00200120704710B5012928D111793C
:1041500053791B020B43134909788B4201D000208D
:104160001FE05378012B03D0022B12D0002018E05F
:104170009178D3781B021943DB0507D5480A4A0A10
:1041800001231A407E331940FDF744FC01204042D0
:10419000F5E7642200210020FDF7E4FB012000E0A8
:1041A000012010BDAE1B002000487047047C0010A9
:1041B00010B51400012910D15378012B0FD11279B9
:1041C00063791B021343072B01D0002006E09F33C5
:1041D000044A210001F03EFB00E0012010BD002058
:1041E000FCE7C046287C001001230370004870479C
:1041F000E47B001010B50B784878000218438A78E9
:1042000012041043CB781B0603439622D20093423C
:1042100000D010BD0120002211004042FDF7FAFB42
:10422000024B1860024B19607047C046E81400202A
:10423000F014002010B5FDF763F90E4A00231218A0
:104240004B41002B12DB0C4802F086FE00280CD0FC
:1042500001200021404201F0C7F9002001F07EFC5E
:104260000028F5D1044802F03FFE10BD0122524261
:10427000024BE8E740420F00881B0020FFFFFF7F52
:1042800010B5024B1878FCF7E9F910BDAF1B002000
:1042900010B584B000212B4802F03EFE002821D149
:1042A000294B1B68002B1BD0274B1968EFF310829A
:1042B00072B60B68002BFCD0BFF35F8F22494A60B7
:1042C0002248037801246340DBB2012404700968AA
:1042D000BFF35F8F0020086082F31088002B17D196
:1042E00004B010BD01200021404201F07DF9002002
:1042F00001F00CFC0400134802F0F6FD002CEFD096
:10430000134B1B68002BEBD0124A10689847E7E765
:10431000FCF7B2FE0400FDF7F3F8FA229200002346
:1043200012184B41002B09DB012102910021019160
:10433000094900912000FCF70DFFD1E7012252420C
:10434000064BF1E7881B002060190020B01B0020FD
:10435000E8140020F014002061430010FFFFFF7FED
:1043600070B5174B1B68002B21D0154B1968EFF364
:10437000108372B60A68002AFCD0BFF35F8F104921
:104380004B6000220F4802700968BFF35F8F0A601C
:1043900083F31088002400250B4B1878FCF73AF9BA
:1043A000002808D1002400252000290070BDFA242F
:1043B000A4000025F0E7044B1878FCF74FF9F3E769
:1043C00060190020B01B0020AF1B002010B584B086
:1043D000D0231B061C68FCF74FFEFCF715FFA0421C
:1043E0002ED12E4B1B780021002002F083F82C4B9D
:1043F0001B68002B2AD00120FCF7E4FBC0B2294C3B
:1044000020702949FCF748F920780121FCF71CF9B4
:104410000520FCF733F9041E1CD00120FCF76EF8D0
:1044200001002248FCF72CFC002221490520FCF762
:104430005DF901211F48FFF7E1FC200004B010BD29
:104440001D4B1E4AC1211E48FFF7C2FB1448FCF752
:10445000D5FBD0E7082200211448FEF707FBFCF744
:104460000BFE0400FDF74CF8FA229200002312180C
:104470004B41002B0DDB01210291002101911149DB
:1044800000912000FCF766FEC043C40F0028D4DA78
:10449000CFE7012252420C4BEDE7C0467885001071
:1044A000881B0020AF1B00209142001060190020E3
:1044B00081420010680C0020A47200104C7D001096
:1044C000D07C001061430010FFFFFF7F10B500207B
:1044D00001F0FCFA10BD000070B505000C00FFF7FC
:1044E000F5FF002834D0002001F010FB002832D066
:1044F000FDF706F81B4A002312184B41002B19DB6D
:10450000194802F029FD002828D0FFF7DFFF002816
:1045100004D0002001F0FAFA00280FD10120002178
:10452000404201F061F8032464420F4802F0DCFCD1
:10453000200070BD012252420C4BE1E7220029000D
:10454000002001F0EFFA041EEFD103246442ECE7EF
:1045500003246442ECE703246442E9E70324644251
:10456000E6E7C04640420F00881B0020FFFFFF7FA8
:10457000F0B5C64600B580460C00FCF7C1FF314AD5
:10458000002312184B41002B07DB2F4802F0E4FCFC
:10459000002806D180BCB846F0BD012252422B4B08
:1045A000F3E7FFF793FF002849D1294B00200021B2
:1045B00018605960244802F097FCEBE701200021C5
:1045C000404201F011F8002001F0C8FAFFF77EFF29
:1045D0000028EFD0002001F043FB002820D0A542A6
:1045E000E8DA661B002001F03BFB0200864200DC9B
:1045F0003200002AE2D043465919002001F00CFB9A
:10460000060001200021404200F0EEFF002001F0F2
:10461000A5FAAD19FCF774FF0D4B18605960DEE781
:10462000FCF76EFF0A4B1E685F680A4A0023921966
:104630007B419942BED8D2D19042D0D9BAE7002569
:10464000CDE7C04640420F00881B0020FFFFFF7FE0
:10465000280E002020A1070000487047DC7D0010D4
:1046600000487047887D001010B50400154B1B787A
:10467000002B0ED0002C11D1134B144A5A80012369
:1046800001335B001BB2C022920013430E4803802B
:1046900010BD11210B4800F025F8EBE7052C0ED8D2
:1046A000A4000B4BE4580023122BE9D8E25C002A4B
:1046B000E6D00133590004484252DBB2F4E700204F
:1046C000E6E7C046981B00202415002009040000DE
:1046D000F07D001010B5024800F034F810BDC0465F
:1046E0007819002010B5002901D000230AE0114BF1
:1046F000114A35311148FFF76BFA00240DE03732CB
:10470000C25401334A1E9A420FD90F2B0DD85A08B2
:104710000B4CA25CDC07F0D40424224114000F22CD
:104720002240092AEBDC3032EAE7C018002303708C
:1047300010BDC046087E00106C7E0010107E001078
:104740007819002070B588B0040004AD00260496E6
:104750000922002105A8FEF789F900960922002107
:1047600001A8FEF783F94B232B700D226946280020
:1047700002F0B2FB002304E05A1D69468A5CE25451
:104780000133072BF8DD08B070BD000070B57F2342
:104790000340C5095C0064196601254CA419A0708A
:1047A0006842684160700020E0702183E276012D4C
:1047B0001DD0D8001F4A944660445A005219520135
:1047C0001B498A1890605A005219520118498A18D8
:1047D000926800211160002B0FD15B005B195B0117
:1047E000134DEB1800225A60134ADA6070BDD800EE
:1047F000124A94466044A060E5E7012D0BD05A1E92
:10480000D2000F498C4662445B005B195B0108498A
:10481000CB185A60EAE75A1ED2000A498C46624415
:104820005B005B195B01024DEB185A60DEE7C04686
:1048300058150020840010500001105080001050C6
:104840000C0010500800105010B5038B3F333F226E
:104850009343C27E022A08D008490A68C260D3186E
:104860000B60074A934202D810BD5B00F4E7054B8A
:10487000054A52210548FFF7ABF9C0465C190020F4
:10488000FF0F1050448000104481001088800010F9
:10489000F8B57F250540C6096B009B195B010E4CDE
:1048A0001C19FFF773FF002D00D1F8BD6D00AD1985
:1048B0006D01094B5D19298B2000FFF7C5FFEB7EC9
:1048C0009B06064AE9684A401343802212061343B6
:1048D0006A681360E9E7C0465815002000001050D0
:1048E00010B504007F202040E40940000019400179
:1048F000024BC01800F026F910BDC0465815002024
:1049000010B5002804D101210520FBF79DFE10BD44
:104910009821034B034AFF310348FFF759F9C0467A
:1049200008810010348100108880001010B5002824
:1049300005D1002200218020FFF7D2FF10BDA22167
:10494000024B034AFF310348FFF742F90881001088
:104950002481001088800010024B80225202DA6409
:104960007047C0460020115070B5041E27D100F0DA
:10497000C7F8164D0C23AB67FF2215490520FBF73E
:10498000B5FE402200211348FEF770F800224021B6
:104990000020FFF77DFF002240218020FFF778FFF5
:1049A00002F092FA01232B6480239B05EB64902391
:1049B000094AEA502000FFF7CFFF012070BD6421B3
:1049C000064B074AFF310748FFF702F90000115074
:1049D000690400205815002010D001000881001043
:1049E0005881001088800010044B1970002904D0F1
:1049F000034A902380218902D1507047AA1B0020CE
:104A0000002011500B785B0602D14B78052B00D0AB
:104A100070478A78014B1A60FAE7C04600001150CF
:104A200010B50C00CA789207920F012A0AD00979B2
:104A300063791B020B435B05590DA078FFF728FF34
:104A4000012010BD0020FCE710B502F03DFA10BDBA
:104A500010B50400080011001A00002C03D1FFF764
:104A60003FFF012010BD8121024B034A890003480A
:104A7000FFF7AEF808810010148100108880001044
:104A800010B57F2213000B400A4205D1CA09012A42
:104A90000ED00220074A9066C9095800401840010C
:104AA0000549401880221201002102F06DFA10BD64
:104AB0000120EFE7002011505815002010B57F228B
:104AC000100008400A4200D110BDC909400040183A
:104AD0004001044940180023C3700022024902F03B
:104AE00053FAF1E758150020FFF7FFFF04E00A78BA
:104AF0000270013101301A00531E002AF7D17047AD
:104B000010B580235B040A4A13600A4A13600A4BFB
:104B10001A6880235B049343F9D18022520100215B
:104B20000648FDF7A3FF064B09225A6710BDC04691
:104B300000E0004000F0004008C0004000001050BD
:104B40000000115070B504000D001600837E002B8C
:104B500017D1A6820023E3820133A37625612000CA
:104B600002F0F2F9002804D00C4A90238021890237
:104B7000D150200002F0D8F900280AD00123237771
:104B800070BD81780648FFF795F9200002F0F4F92E
:104B9000DFE7200002F0E8F9F2E7C04600201150FC
:104BA0005882001070B5050000240AE0D21A5201A4
:104BB000164B9B18002B11D0DB6828009847013456
:104BC000E4B2134B1B78591C2200A1420CDBA34218
:104BD000ECD9104B1B6862019B18EBE70E4A0F499A
:104BE0000F48FFF767F910E00E4C54220021200017
:104BF000FDF73CFF201D1022FF21FDF737FF2000AD
:104C000014302022FF21FDF731FF70BD1884001001
:104C1000A91B00204C0E002025020000608300101C
:104C2000A0820010FC0F002010B5FFF7BBFF00F0C2
:104C300065FE10BD70B505000C001600486900F057
:104C400067FE6369320001212800984770BD0000AB
:104C5000F0B5DE4657464E464546E0B583B082463F
:104C60000139C8B2FFF7FCFC002803D04378019358
:104C7000022B0CD0524A53495348FFF71BF900202E
:104C800003B0F0BCBB46B246A946A046F0BDC5790C
:104C90006A1101234D491A4014010A781026B243C3
:104CA00022430A70AD112B405B01D2B22024A243F3
:104CB00013430B70060009368278C3781B02134336
:104CC00083469B445E4578D273780B2B0AD0012330
:104CD00099467378042B0AD15B469B1B9BB298467E
:104CE00000243EE0F37899463378F618F1E7384A25
:104CF00034493548FFF7DEF80020C1E77D1B6D0120
:104D0000344B5D1939E0344A2E492F48FFF7D2F869
:104D10000020B5E72A69314B9A423DD1019B994663
:104D20003AE02F4A27492848FFF7C4F80020A7E7B0
:104D300026482300009C22003100143001F0B4FC0E
:104D4000A4466644274B1B7801339F42BADD852277
:104D5000D2001C491C48FFF7ADF8002090E7013451
:104D6000E4B2204B1D786B1C2700A342EADBA5426E
:104D7000C4D91D4B1D686301ED18002DC3D04246F8
:104D8000310050462B69984700900828E7D98045A4
:104D9000E5D34B46012BBDD000218945C8D9B37856
:104DA0005B18DBB2094AD2181279FF2AB9D1074A37
:104DB000D3181C710131C9B2EFE7012060E7C0468A
:104DC000D6030000EC830010A0820010FC0F00202E
:104DD000F103000018840010FA030000DD5D0010EC
:104DE00019040000A91B00204C0E002070477047DA
:104DF000002070470020704770B505000C00CB788C
:104E000088780F2B53D89A002E498A589746FFF777
:104E100023FC021E05D012232100280000F01AFDF9
:104E200046E0294A29492A48FFF744F800203FE094
:104E3000FFF7BAF9021E3CD08178C3781B020B43FE
:104E40002100280000F006FD32E0022B0CD0FFF715
:104E5000D1FF021E2FD09178D3781B020B43210083
:104E6000280000F0F7FC23E0FFF7FAFB021EF2D166
:104E7000184A16491648FFF71DF8002018E0237954
:104E8000617909021943FFF7EFFB021E15D0037881
:104E90002100280000F0DEFC0AE0FFF7A9FF021E57
:104EA0000DD003782100280000F0D4FC00E00020A1
:104EB00070BD0020FCE70020FAE70020F8E70020A2
:104EC000F6E7C046B88200103A040000D483001010
:104ED000A08200106104000070477047704770475F
:104EE000024B5878431E9841C0B27047FC0F002017
:104EF000024B18784007C00F7047C046FC0F0020D7
:104F0000034B1878FF38431E9841C0B27047C04623
:104F10009C0C0020F8B505000F00FFF7F1FF061EFE
:104F200049D1002F21D0542200212D48FDF79EFDAC
:104F30002C4B00221A702C4C2000FBF75FFE2B4BF1
:104F40001C602B4C20001430FBF7A4FE200001F065
:104F500047FF284B1C60284B002B04D02748FFF745
:104F600043F9274B1860002412E0E922520025493A
:104F70002548FEF79FFF1EE0D21A5201234B9B18D3
:104F8000002B12D05B68002B0FD098470134E4B29D
:104F90001A4B1B78591C2200A1420EDBA342EBD90D
:104FA000174B1B6862019B18EAE7F822520015496B
:104FB0001548FEF77FFF3000F8BD154B1D70390016
:104FC0002800FFF7D1FC061E03D02800FFF798FC4D
:104FD000F1E7FC2252000B490B48FEF76BFFEAE7B2
:104FE000FC0F0020AB1B0020F40F0020501000200D
:104FF000800C002054100020E9410010A91B002063
:105000004C0E002084830010A08200101884001031
:105010009C0C002070B50D00104B1E788B78702210
:105020001A420DD10E4B9978280001F0E7FA041EC0
:105030000DD029003000FFF7F3FC0400200070BD04
:10504000084A09490948FEF735FF0024F6E7084AEF
:1050500005490648FEF72EFFF0E7C0469C0C0020ED
:10506000FC0F00200B050000A4830010A08200109C
:105070000C050000F0B5D6464F464646C0B5814601
:105080000C0017009846089B9A46002517E0184A1E
:1050900018491948FEF70EFF00263000E0BCBA465A
:1050A000B146A846F0BD9D22D20012491248FEF733
:1050B00001FFF2E7099A13702378E4180135AF4233
:1050C00014DD6378052BE2D1E1788907890F41452A
:1050D000DDD121004846FFF79DFF061EE3D0A378EF
:1050E000DA09012AE6D052461370E5E70126D4E733
:1050F000E7040000B4830010A082001010B57F20E8
:105100000840C909400040183030044908180430EC
:10511000034B196801F02CFA10BDC046FC0F0020AB
:105120005010002010B57F200840C90940004018E9
:105130003030044908180430034B196801F040FA74
:1051400010BDC046FC0F002050100020F0B5C64630
:1051500000B582B001931A4800787F250D40CE0932
:105160006F00184CE419A41930342479E4071DD4D5
:105170006F00144CE419A419303423790127BC467C
:1051800067463B432371019BFFF762FC002813D164
:105190006D000C4B5D19AE19303633790122934303
:1051A0003371337903329343337105E0064A07497B
:1051B0000748FEF77FFE002002B080BCB846F0BD75
:1051C0009C0C0020FC0F0020390500009483001087
:1051D000A082001070B50A4B18787F240C40CD09CE
:1051E000FFF74EFC6400074B1B195B1930331A792B
:1051F00002210A431A711A7901210A431A7170BDFA
:105200009C0C0020FC0F002070B50A4B18787F24FE
:105210000C40CD09FFF752FC6400074B1B195B19CA
:1052200030331A7902218A431A711A7901398A4373
:105230001A7170BD9C0C0020FC0F00207F220A40D8
:10524000CB09520003498918C91830310879800701
:10525000C00F7047FC0F0020F0B5C64600B582B005
:1052600004000D00002000F053FB2B7860221A4050
:10527000602A12D0402A18D02B78DB06DB0E012BD7
:1052800000D1DCE0022B00D11CE1002B17D000265E
:10529000300002B080BCB846F0BD55329200C9491A
:1052A000C948FEF707FE0026F2E7C84800F030FBC9
:1052B0002A0001212000FEF77BFF0600E8E7202AF4
:1052C0000AD0002A00D06FE16B78092B00D96DE17C
:1052D0009B00BF4AD3589F462B790F2B00D95DE125
:1052E000BC4AD3181B79BC4A11788B420CD2BB4AFA
:1052F000126859015118002900D153E12A002000F9
:10530000FFF798FC0600C3E74A1C9A4200DA47E11F
:10531000591A4901B24B5918EDE7280000F0FEFA7E
:10532000A9782000FFF702FBAA4A137802210B4359
:1053300013700126ACE7A74B5B786A460632137000
:1053400001232900200000F085FA0126A0E7AE78AD
:10535000A04B5B78DBB2B3422CD09E4B5B78002B2A
:105360000CD19C4B5E70002E22D031002000FFF744
:105370006FFC061E12D0FFF7AFFD1BE000212000DE
:10538000FFF732FB2000FFF75FFB924FBB78984698
:105390002000FFF707FC4346BB70E2E7C9229200FA
:1053A00088498948FEF786FD8A4B00225A706FE7CC
:1053B000FFF793FD2900200000F030FA012667E78F
:1053C00029002000FFF718FD060061E7A978EB78B7
:1053D0001B020B43012B01D0002659E77D4A1378AD
:1053E00008210B4313702900200000F017FA012652
:1053F0004EE7A978EB781B020B43012B01D0002666
:1054000046E7744A137808218B4313702900200063
:1054100000F004FA01263BE76E4B1A785109920816
:1054200001230B4002210A4013436A4606321380CF
:1054300002232900200000F00DFA012628E72B792D
:105440000F2B00D9B4E0634AD3181B79624A117854
:105450008B4223D2614A126859015118002900D1A8
:10546000AAE02A002000FFF7E5FB061E00D00FE7A8
:105470002B7860221A4200D00AE76B780A3B012B96
:1054800000D905E7002000F043FA6B780A2B0ED014
:105490002900200000F0C2F90126F9E64A1C9A42D0
:1054A00000DA87E0591A49014D4B5918D6E76B4687
:1054B0009A1D0023137001332900200000F0CAF95F
:1054C0000136E5E629797F230B40CE09702008429A
:1054D00017D15B003F48C3189B191B7D3E480078DD
:1054E000834215D23D4806685B01F618002A19D0A0
:1054F000002E63D02A0031002000FFF79BFB06003E
:10550000C6E6384A2F493048FEF7D4FC0026BFE6ED
:10551000461C9E4204DB1B1A5B01314EF618E5E780
:105520000026E3E76A78012A12D0032A10D0002A65
:1055300001D00026ACE62000FFF780FE6B469A1DE6
:10554000108002232900200000F084F901269FE644
:10555000A878EB781B02034304D1012A1AD020005B
:10556000FFF738FE002E2BD02A0031002000FFF775
:1055700061FB002000F0CCF9164A3523D35CDB0731
:10558000DE0F002B00D083E62900200000F046F952
:1055900001267DE62000FFF737FEE3E7002677E6E9
:1055A000002675E6002673E6002671E600266FE603
:1055B00000266DE600266BE6002669E6002667E613
:1055C000012665E600840010A0820010B1410010A1
:1055D00014830010FC0F0020A91B00204C0E00209B
:1055E000188400109503000030B585B0FFF788FCE3
:1055F000002808D105B030BD01AC2078FFF714FBBE
:105600002279644B9A70644B1C68210014316269E2
:10561000EFF3108072B61368002BFCD0BFF35F8FDE
:10562000486001A9200001F07EFB6269A369BFF315
:105630005F8F0021116083F310880028DAD001AB5E
:105640005B78082BDFD89B00544AD3589F4601ABA8
:105650001878FFF7E9FAFFF740FCD4E7504B1B78C6
:10566000002B2DD04E4A1378013BDBB21370137818
:10567000002BC8D1474B1A78012401210A431A7024
:105680003422995CA1439954995C04208143995434
:105690000132995CA1439954995C8143995401ABBF
:1056A000187802A9FFF7D8FD0028ACD101AC20780A
:1056B0000021FFF7E5F920788021FFF7E1F9A2E763
:1056C000384A39493948FEF7F5FB93E701AB1979B8
:1056D0007F220A40CC0950002E4B1B181B19303377
:1056E00018790125A843187118790335A843187152
:1056F000002A15D05200274B9A181219137D2C4AF4
:105700001278934213D22B4A12685B01D318002BF4
:1057100015D09C6901A84279039B0078A04772E7E5
:1057200001A84279039B007800F006F96BE7501C52
:10573000984204DB9B1A5B011F4AD318E7E7A422B7
:10574000920019491948FEF7B5FB53E7114B1B7836
:10575000DB0700D457E70F4B18780007C00FFFF79F
:10576000BDFB50E70B4B1B78DB0700D44BE7FFF783
:10577000B6FB48E7029B002B00D144E7039898470B
:1057800041E7044BDB78DB0700D43CE70298FFF7E6
:105790002EFB38E7FC0F0020541000203C83001043
:1057A000AB1B00206502000074830010A082001073
:1057B000A91B00204C0E002018840010F8B505002D
:1057C000144B9F89DE89BB1B9BB21C1C402B00D94C
:1057D0004024A4B20F4B1B785BB2002B08DB0021E6
:1057E000B74213D00C4A23002800FFF7AFFCF8BDE6
:1057F000B74209D0074B9968402C09D822000648C7
:10580000FDF73AF98021EBE78021E9E70022EAE79A
:105810000020ECE7DC0F00209C0F002070B5060094
:105820000C000B4D08222800FDF726F90023AB6081
:10583000EB81AB810023E356002B06DB80210023A4
:1058400000223000FFF782FC70BD0021F7E7C04660
:10585000DC0F0020F0B5C64600B580460C001600EF
:105860001D00234F08223800FDF706F9BE60002313
:10587000FB81A379E179090219430B1CA94200D9E4
:105880002B1C99B21A4A9381A279E3791B02134324
:1058900019D0002901D0002E08D04046FFF78EFF16
:1058A000041E0AD0200080BCB846F0BD7222114907
:1058B0001148FEF7FFFA0024F4E774220D490E4860
:1058C000FEF7F8FAEEE70023E356002B0DDB80210C
:1058D000002300224046FFF739FC041EE2D1762265
:1058E00004490548FEF7E6FADCE70021F0E7C04688
:1058F000DC0F002070840010A082001010B514226C
:1059000000210248FDF7B2F810BDC046DC0F0020B0
:10591000014B18617047C046DC0F002010B5010034
:10592000044C08222000FDF7A7F80023A360E381C0
:10593000A38110BDDC0F002070B505001C00C90953
:10594000364B1B78DB098B4216D0002C07D09D22EA
:1059500033493448FEF7AEFA0024200070BD2F4CC6
:105960002100FFF74FF82369002B03D02B4A0321B6
:10597000280098470124F0E7284B1B785BB2002BE6
:1059800007DB264B9868002845D022002649FDF702
:1059900073F8A2B22149CB89D3189BB2CB818A6814
:1059A00012198A60CA88934201D03F2C28D81B4B19
:1059B0001B69002B05D0194A0221280098470028AE
:1059C00014D0164B1B785BB2002B0DDB802100231B
:1059D00000222800FFF7BAFB041EBED1C5221049E1
:1059E0001048FEF767FAB8E70021F0E70021280029
:1059F000FFF746F880212800FFF742F80124ACE7C2
:105A00002800FFF7DBFE041EA7D1CD22044905487C
:105A1000FEF750FAA1E700249FE7C046DC0F002004
:105A200058840010A08200109C0F002070B5040064
:105A3000FFF756FA00280BD10020002807D0C82213
:105A40006243204B9B18DB78002B09D1002070BDEE
:105A5000FFF74EFA002801D10130EEE70020ECE715
:105A600015001035174BED18280001F046F93F28B6
:105A700001D80020EBE7C8226243124B9B18D9786B
:105A80000020FFF73BFB0028E1D0280001F035F9AA
:105A90003F280CD9E2010C4BD218C8206043094CB6
:105AA0002418E17840230020FFF750FBCFE7C820FF
:105AB0006043044C2418E1780020FFF733FB0020FA
:105AC000C5E7C046D40E0020500E002010B50400DB
:105AD000FFF706FA00280BD10022002A10D0C823B5
